{
  "contractName": "TravelBooking",
  "abi": [
    {
      "inputs": [
        {
          "internalType": "uint256",
          "name": "",
          "type": "uint256"
        }
      ],
      "name": "tourists",
      "outputs": [
        {
          "internalType": "address",
          "name": "",
          "type": "address"
        }
      ],
      "stateMutability": "view",
      "type": "function",
      "constant": true
    },
    {
      "inputs": [
        {
          "internalType": "uint256",
          "name": "destinationId",
          "type": "uint256"
        }
      ],
      "name": "book",
      "outputs": [
        {
          "internalType": "uint256",
          "name": "",
          "type": "uint256"
        }
      ],
      "stateMutability": "nonpayable",
      "type": "function"
    },
    {
      "inputs": [],
      "name": "getTourists",
      "outputs": [
        {
          "internalType": "address[6]",
          "name": "",
          "type": "address[6]"
        }
      ],
      "stateMutability": "view",
      "type": "function",
      "constant": true
    }
  ],
  "bytecode": "0x608060405234801561001057600080fd5b5061042e806100206000396000f3fe608060405234801561001057600080fd5b50600436106100415760003560e01c80631116fd04146100465780634bfb931714610076578063ce101b2f14610094575b600080fd5b610060600480360381019061005b9190610250565b6100c4565b60405161006d919061028c565b60405180910390f35b61007e61013c565b60405161008b9190610384565b60405180910390f35b6100ae60048036038101906100a99190610250565b6101bd565b6040516100bb91906103ae565b60405180910390f35b60008082101580156100d7575060058211155b6100e057600080fd5b33600083600681106100f5576100f46103c9565b5b0160006101000a81548173ffffffffffffffffffffffffffffffffffffffff021916908373ffffffffffffffffffffffffffffffffffffffff160217905550819050919050565b6101446101f3565b60006006806020026040519081016040528092919082600680156101b3576020028201915b8160009054906101000a900473ffffffffffffffffffffffffffffffffffffffff1673ffffffffffffffffffffffffffffffffffffffff1681526020019060010190808311610169575b5050505050905090565b600081600681106101cd57600080fd5b016000915054906101000a900473ffffffffffffffffffffffffffffffffffffffff1681565b6040518060c00160405280600690602082028036833780820191505090505090565b600080fd5b6000819050919050565b61022d8161021a565b811461023857600080fd5b50565b60008135905061024a81610224565b92915050565b60006020828403121561026657610265610215565b5b60006102748482850161023b565b91505092915050565b6102868161021a565b82525050565b60006020820190506102a1600083018461027d565b92915050565b600060069050919050565b600081905092915050565b6000819050919050565b600073ffffffffffffffffffffffffffffffffffffffff82169050919050565b60006102f2826102c7565b9050919050565b610302816102e7565b82525050565b600061031483836102f9565b60208301905092915050565b6000602082019050919050565b610336816102a7565b61034081846102b2565b925061034b826102bd565b8060005b8381101561037c5781516103638782610308565b965061036e83610320565b92505060018101905061034f565b505050505050565b600060c082019050610399600083018461032d565b92915050565b6103a8816102e7565b82525050565b60006020820190506103c3600083018461039f565b92915050565b7f4e487b7100000000000000000000000000000000000000000000000000000000600052603260045260246000fdfea264697066735822122009df31229027e4d265abfefe6f482723b1af320d353ba430386cbb038dba361164736f6c634300080c0033",
  "immutableReferences": {},
  "source": "pragma solidity >=0.4.2 < 0.9.0;\r\n\r\ncontract TravelBooking{\r\n    address[6] public tourists;\r\n\r\n    function book(uint destinationId) public returns(uint){\r\n        require(destinationId>=0 && destinationId<=5);\r\n        tourists[destinationId] = msg.sender;\r\n        return destinationId;\r\n    }\r\n\r\n    function getTourists() public view returns(address[6] memory){\r\n        return tourists;\r\n    }\r\n}",
  "sourcePath": "C:\\Users\\usser\\Desktop\\Code\\Travel Booking\\contracts\\TravelBooking.sol",
  "compiler": {
    "name": "solc",
    "version": "0.8.12+commit.f00d7308.Emscripten.clang"
  },
  "schemaVersion": "3.4.3",
  "updatedAt": "2022-03-12T17:59:26.787Z",
  "networkType": "ethereum",
  "devdoc": {
    "kind": "dev",
    "methods": {},
    "version": 1
  },
  "userdoc": {
    "kind": "user",
    "methods": {},
    "version": 1
  }
}